{
  "contractName": "SolnSquareVerifier",
  "abi": [
    {
      "anonymous": false,
      "inputs": [
        {
          "indexed": true,
          "internalType": "address",
          "name": "owner",
          "type": "address"
        },
        {
          "indexed": true,
          "internalType": "address",
          "name": "approved",
          "type": "address"
        },
        {
          "indexed": true,
          "internalType": "uint256",
          "name": "tokenId",
          "type": "uint256"
        }
      ],
      "name": "Approval",
      "type": "event"
    },
    {
      "anonymous": false,
      "inputs": [
        {
          "indexed": true,
          "internalType": "address",
          "name": "owner",
          "type": "address"
        },
        {
          "indexed": true,
          "internalType": "address",
          "name": "operator",
          "type": "address"
        },
        {
          "indexed": false,
          "internalType": "bool",
          "name": "approved",
          "type": "bool"
        }
      ],
      "name": "ApprovalForAll",
      "type": "event"
    },
    {
      "anonymous": false,
      "inputs": [
        {
          "indexed": false,
          "internalType": "address",
          "name": "pausedAccount",
          "type": "address"
        }
      ],
      "name": "Paused",
      "type": "event"
    },
    {
      "anonymous": false,
      "inputs": [
        {
          "indexed": false,
          "internalType": "address",
          "name": "solver",
          "type": "address"
        },
        {
          "indexed": false,
          "internalType": "bytes32",
          "name": "key",
          "type": "bytes32"
        }
      ],
      "name": "SolutionAdded",
      "type": "event"
    },
    {
      "anonymous": false,
      "inputs": [
        {
          "indexed": true,
          "internalType": "address",
          "name": "from",
          "type": "address"
        },
        {
          "indexed": true,
          "internalType": "address",
          "name": "to",
          "type": "address"
        },
        {
          "indexed": true,
          "internalType": "uint256",
          "name": "tokenId",
          "type": "uint256"
        }
      ],
      "name": "Transfer",
      "type": "event"
    },
    {
      "anonymous": false,
      "inputs": [
        {
          "indexed": false,
          "internalType": "address",
          "name": "unpausedAccount",
          "type": "address"
        }
      ],
      "name": "Unpaused",
      "type": "event"
    },
    {
      "anonymous": false,
      "inputs": [
        {
          "indexed": false,
          "internalType": "address",
          "name": "originalOwner",
          "type": "address"
        },
        {
          "indexed": false,
          "internalType": "address",
          "name": "newOwner",
          "type": "address"
        }
      ],
      "name": "ownershipModified",
      "type": "event"
    },
    {
      "inputs": [],
      "name": "Pause",
      "outputs": [],
      "stateMutability": "nonpayable",
      "type": "function"
    },
    {
      "inputs": [],
      "name": "Unpause",
      "outputs": [],
      "stateMutability": "nonpayable",
      "type": "function"
    },
    {
      "inputs": [
        {
          "internalType": "bytes32",
          "name": "_myid",
          "type": "bytes32"
        },
        {
          "internalType": "string",
          "name": "_result",
          "type": "string"
        }
      ],
      "name": "__callback",
      "outputs": [],
      "stateMutability": "nonpayable",
      "type": "function"
    },
    {
      "inputs": [
        {
          "internalType": "bytes32",
          "name": "_myid",
          "type": "bytes32"
        },
        {
          "internalType": "string",
          "name": "_result",
          "type": "string"
        },
        {
          "internalType": "bytes",
          "name": "_proof",
          "type": "bytes"
        }
      ],
      "name": "__callback",
      "outputs": [],
      "stateMutability": "nonpayable",
      "type": "function"
    },
    {
      "inputs": [
        {
          "internalType": "address",
          "name": "target",
          "type": "address"
        },
        {
          "internalType": "uint256",
          "name": "tokenId",
          "type": "uint256"
        }
      ],
      "name": "approve",
      "outputs": [],
      "stateMutability": "nonpayable",
      "type": "function"
    },
    {
      "inputs": [
        {
          "internalType": "address",
          "name": "owner",
          "type": "address"
        }
      ],
      "name": "balanceOf",
      "outputs": [
        {
          "internalType": "uint256",
          "name": "",
          "type": "uint256"
        }
      ],
      "stateMutability": "view",
      "type": "function",
      "constant": true
    },
    {
      "inputs": [],
      "name": "baseTokenURI",
      "outputs": [
        {
          "internalType": "string",
          "name": "",
          "type": "string"
        }
      ],
      "stateMutability": "view",
      "type": "function",
      "constant": true
    },
    {
      "inputs": [
        {
          "internalType": "uint256",
          "name": "tokenId",
          "type": "uint256"
        }
      ],
      "name": "getApproved",
      "outputs": [
        {
          "internalType": "address",
          "name": "",
          "type": "address"
        }
      ],
      "stateMutability": "view",
      "type": "function",
      "constant": true
    },
    {
      "inputs": [],
      "name": "getOwner",
      "outputs": [
        {
          "internalType": "address",
          "name": "",
          "type": "address"
        }
      ],
      "stateMutability": "view",
      "type": "function",
      "constant": true
    },
    {
      "inputs": [
        {
          "internalType": "address",
          "name": "owner",
          "type": "address"
        },
        {
          "internalType": "address",
          "name": "operator",
          "type": "address"
        }
      ],
      "name": "isApprovedForAll",
      "outputs": [
        {
          "internalType": "bool",
          "name": "",
          "type": "bool"
        }
      ],
      "stateMutability": "view",
      "type": "function",
      "constant": true
    },
    {
      "inputs": [],
      "name": "isPaused",
      "outputs": [
        {
          "internalType": "bool",
          "name": "",
          "type": "bool"
        }
      ],
      "stateMutability": "view",
      "type": "function",
      "constant": true
    },
    {
      "inputs": [
        {
          "internalType": "address",
          "name": "to",
          "type": "address"
        },
        {
          "internalType": "uint256",
          "name": "tokenId",
          "type": "uint256"
        }
      ],
      "name": "mint",
      "outputs": [
        {
          "internalType": "bool",
          "name": "retVal",
          "type": "bool"
        }
      ],
      "stateMutability": "nonpayable",
      "type": "function"
    },
    {
      "inputs": [],
      "name": "name",
      "outputs": [
        {
          "internalType": "string",
          "name": "",
          "type": "string"
        }
      ],
      "stateMutability": "view",
      "type": "function",
      "constant": true
    },
    {
      "inputs": [
        {
          "internalType": "uint256",
          "name": "tokenId",
          "type": "uint256"
        }
      ],
      "name": "ownerOf",
      "outputs": [
        {
          "internalType": "address",
          "name": "",
          "type": "address"
        }
      ],
      "stateMutability": "view",
      "type": "function",
      "constant": true
    },
    {
      "inputs": [
        {
          "internalType": "address",
          "name": "from",
          "type": "address"
        },
        {
          "internalType": "address",
          "name": "to",
          "type": "address"
        },
        {
          "internalType": "uint256",
          "name": "tokenId",
          "type": "uint256"
        }
      ],
      "name": "safeTransferFrom",
      "outputs": [],
      "stateMutability": "nonpayable",
      "type": "function"
    },
    {
      "inputs": [
        {
          "internalType": "address",
          "name": "from",
          "type": "address"
        },
        {
          "internalType": "address",
          "name": "to",
          "type": "address"
        },
        {
          "internalType": "uint256",
          "name": "tokenId",
          "type": "uint256"
        },
        {
          "internalType": "bytes",
          "name": "_data",
          "type": "bytes"
        }
      ],
      "name": "safeTransferFrom",
      "outputs": [],
      "stateMutability": "nonpayable",
      "type": "function"
    },
    {
      "inputs": [
        {
          "internalType": "address",
          "name": "to",
          "type": "address"
        },
        {
          "internalType": "bool",
          "name": "approved",
          "type": "bool"
        }
      ],
      "name": "setApprovalForAll",
      "outputs": [],
      "stateMutability": "nonpayable",
      "type": "function"
    },
    {
      "inputs": [
        {
          "internalType": "bytes4",
          "name": "interfaceId",
          "type": "bytes4"
        }
      ],
      "name": "supportsInterface",
      "outputs": [
        {
          "internalType": "bool",
          "name": "",
          "type": "bool"
        }
      ],
      "stateMutability": "view",
      "type": "function",
      "constant": true
    },
    {
      "inputs": [],
      "name": "symbol",
      "outputs": [
        {
          "internalType": "string",
          "name": "",
          "type": "string"
        }
      ],
      "stateMutability": "view",
      "type": "function",
      "constant": true
    },
    {
      "inputs": [
        {
          "internalType": "uint256",
          "name": "index",
          "type": "uint256"
        }
      ],
      "name": "tokenByIndex",
      "outputs": [
        {
          "internalType": "uint256",
          "name": "",
          "type": "uint256"
        }
      ],
      "stateMutability": "view",
      "type": "function",
      "constant": true
    },
    {
      "inputs": [
        {
          "internalType": "address",
          "name": "owner",
          "type": "address"
        },
        {
          "internalType": "uint256",
          "name": "index",
          "type": "uint256"
        }
      ],
      "name": "tokenOfOwnerByIndex",
      "outputs": [
        {
          "internalType": "uint256",
          "name": "",
          "type": "uint256"
        }
      ],
      "stateMutability": "view",
      "type": "function",
      "constant": true
    },
    {
      "inputs": [
        {
          "internalType": "uint256",
          "name": "tokenId",
          "type": "uint256"
        }
      ],
      "name": "tokenURI",
      "outputs": [
        {
          "internalType": "string",
          "name": "",
          "type": "string"
        }
      ],
      "stateMutability": "view",
      "type": "function",
      "constant": true
    },
    {
      "inputs": [],
      "name": "totalSupply",
      "outputs": [
        {
          "internalType": "uint256",
          "name": "",
          "type": "uint256"
        }
      ],
      "stateMutability": "view",
      "type": "function",
      "constant": true
    },
    {
      "inputs": [
        {
          "internalType": "address",
          "name": "from",
          "type": "address"
        },
        {
          "internalType": "address",
          "name": "to",
          "type": "address"
        },
        {
          "internalType": "uint256",
          "name": "tokenId",
          "type": "uint256"
        }
      ],
      "name": "transferFrom",
      "outputs": [],
      "stateMutability": "nonpayable",
      "type": "function"
    },
    {
      "inputs": [
        {
          "internalType": "address",
          "name": "newOwner",
          "type": "address"
        }
      ],
      "name": "transferOwnership",
      "outputs": [],
      "stateMutability": "nonpayable",
      "type": "function"
    },
    {
      "inputs": [
        {
          "components": [
            {
              "components": [
                {
                  "internalType": "uint256",
                  "name": "X",
                  "type": "uint256"
                },
                {
                  "internalType": "uint256",
                  "name": "Y",
                  "type": "uint256"
                }
              ],
              "internalType": "struct Pairing.G1Point",
              "name": "a",
              "type": "tuple"
            },
            {
              "components": [
                {
                  "internalType": "uint256[2]",
                  "name": "X",
                  "type": "uint256[2]"
                },
                {
                  "internalType": "uint256[2]",
                  "name": "Y",
                  "type": "uint256[2]"
                }
              ],
              "internalType": "struct Pairing.G2Point",
              "name": "b",
              "type": "tuple"
            },
            {
              "components": [
                {
                  "internalType": "uint256",
                  "name": "X",
                  "type": "uint256"
                },
                {
                  "internalType": "uint256",
                  "name": "Y",
                  "type": "uint256"
                }
              ],
              "internalType": "struct Pairing.G1Point",
              "name": "c",
              "type": "tuple"
            }
          ],
          "internalType": "struct Verifier.Proof",
          "name": "proof",
          "type": "tuple"
        },
        {
          "internalType": "uint256[2]",
          "name": "input",
          "type": "uint256[2]"
        }
      ],
      "name": "verifyTx",
      "outputs": [
        {
          "internalType": "bool",
          "name": "r",
          "type": "bool"
        }
      ],
      "stateMutability": "view",
      "type": "function",
      "constant": true
    },
    {
      "inputs": [
        {
          "internalType": "bytes32",
          "name": "key",
          "type": "bytes32"
        }
      ],
      "name": "isUniqueSolution",
      "outputs": [
        {
          "internalType": "bool",
          "name": "",
          "type": "bool"
        }
      ],
      "stateMutability": "view",
      "type": "function",
      "constant": true
    },
    {
      "inputs": [
        {
          "internalType": "address",
          "name": "to",
          "type": "address"
        },
        {
          "components": [
            {
              "components": [
                {
                  "internalType": "uint256",
                  "name": "X",
                  "type": "uint256"
                },
                {
                  "internalType": "uint256",
                  "name": "Y",
                  "type": "uint256"
                }
              ],
              "internalType": "struct Pairing.G1Point",
              "name": "a",
              "type": "tuple"
            },
            {
              "components": [
                {
                  "internalType": "uint256[2]",
                  "name": "X",
                  "type": "uint256[2]"
                },
                {
                  "internalType": "uint256[2]",
                  "name": "Y",
                  "type": "uint256[2]"
                }
              ],
              "internalType": "struct Pairing.G2Point",
              "name": "b",
              "type": "tuple"
            },
            {
              "components": [
                {
                  "internalType": "uint256",
                  "name": "X",
                  "type": "uint256"
                },
                {
                  "internalType": "uint256",
                  "name": "Y",
                  "type": "uint256"
                }
              ],
              "internalType": "struct Pairing.G1Point",
              "name": "c",
              "type": "tuple"
            }
          ],
          "internalType": "struct Verifier.Proof",
          "name": "proof",
          "type": "tuple"
        },
        {
          "internalType": "uint256[2]",
          "name": "input",
          "type": "uint256[2]"
        }
      ],
      "name": "addSolution",
      "outputs": [
        {
          "internalType": "bool",
          "name": "",
          "type": "bool"
        }
      ],
      "stateMutability": "nonpayable",
      "type": "function"
    },
    {
      "inputs": [
        {
          "internalType": "address",
          "name": "to",
          "type": "address"
        },
        {
          "internalType": "uint256[2]",
          "name": "a",
          "type": "uint256[2]"
        },
        {
          "internalType": "uint256[2][2]",
          "name": "b",
          "type": "uint256[2][2]"
        },
        {
          "internalType": "uint256[2]",
          "name": "c",
          "type": "uint256[2]"
        },
        {
          "internalType": "uint256[2]",
          "name": "input",
          "type": "uint256[2]"
        }
      ],
      "name": "buildKey",
      "outputs": [
        {
          "internalType": "bytes32",
          "name": "",
          "type": "bytes32"
        }
      ],
      "stateMutability": "pure",
      "type": "function",
      "constant": true
    },
    {
      "inputs": [
        {
          "internalType": "address",
          "name": "to",
          "type": "address"
        },
        {
          "internalType": "uint256",
          "name": "tokenId",
          "type": "uint256"
        },
        {
          "internalType": "uint256[2]",
          "name": "a",
          "type": "uint256[2]"
        },
        {
          "internalType": "uint256[2][2]",
          "name": "b",
          "type": "uint256[2][2]"
        },
        {
          "internalType": "uint256[2]",
          "name": "c",
          "type": "uint256[2]"
        },
        {
          "internalType": "uint256[2]",
          "name": "input",
          "type": "uint256[2]"
        }
      ],
      "name": "mintNFTbasic",
      "outputs": [],
      "stateMutability": "nonpayable",
      "type": "function"
    },
    {
      "inputs": [
        {
          "internalType": "address",
          "name": "to",
          "type": "address"
        },
        {
          "internalType": "uint256",
          "name": "tokenId",
          "type": "uint256"
        },
        {
          "components": [
            {
              "components": [
                {
                  "internalType": "uint256",
                  "name": "X",
                  "type": "uint256"
                },
                {
                  "internalType": "uint256",
                  "name": "Y",
                  "type": "uint256"
                }
              ],
              "internalType": "struct Pairing.G1Point",
              "name": "a",
              "type": "tuple"
            },
            {
              "components": [
                {
                  "internalType": "uint256[2]",
                  "name": "X",
                  "type": "uint256[2]"
                },
                {
                  "internalType": "uint256[2]",
                  "name": "Y",
                  "type": "uint256[2]"
                }
              ],
              "internalType": "struct Pairing.G2Point",
              "name": "b",
              "type": "tuple"
            },
            {
              "components": [
                {
                  "internalType": "uint256",
                  "name": "X",
                  "type": "uint256"
                },
                {
                  "internalType": "uint256",
                  "name": "Y",
                  "type": "uint256"
                }
              ],
              "internalType": "struct Pairing.G1Point",
              "name": "c",
              "type": "tuple"
            }
          ],
          "internalType": "struct Verifier.Proof",
          "name": "proof",
          "type": "tuple"
        },
        {
          "internalType": "uint256[2]",
          "name": "input",
          "type": "uint256[2]"
        }
      ],
      "name": "mintNFT",
      "outputs": [],
      "stateMutability": "nonpayable",
      "type": "function"
    }
  ],
  "bytecode": "0x60806040523480156200001157600080fd5b506040518060400160405280601681526020017f436f736d6f7327205265616c657374617465204e4654000000000000000000008152506040518060400160405280600581526020017f63524e46540000000000000000000000000000000000000000000000000000008152506040518060600160405280603f815260200162005860603f9139336000806101000a81548173ffffffffffffffffffffffffffffffffffffffff021916908373ffffffffffffffffffffffffffffffffffffffff1602179055507feb754dc7308dac6c3f9d6a83c6e1b2c38a4301a2f19d4dcec0d4f54a3ca44b6b60008060009054906101000a900473ffffffffffffffffffffffffffffffffffffffff166040516200012d92919062000397565b60405180910390a160008060146101000a81548160ff021916908315150217905550620001676301ffc9a760e01b6200020360201b60201c565b6200017f6380ac58cd60e01b6200020360201b60201c565b6200019763780e9d6360e01b6200020360201b60201c565b82600f9080519060200190620001af929190620002a2565b508160109080519060200190620001c8929190620002a2565b508060119080519060200190620001e1929190620002a2565b50620001fa635b5e139f60e01b6200020360201b60201c565b50505062000428565b63ffffffff60e01b817bffffffffffffffffffffffffffffffffffffffffffffffffffffffff1916036200023657600080fd5b6001806000837bffffffffffffffffffffffffffffffffffffffffffffffffffffffff19167bffffffffffffffffffffffffffffffffffffffffffffffffffffffff1916815260200190815260200160002060006101000a81548160ff02191690831515021790555050565b828054620002b090620003f3565b90600052602060002090601f016020900481019282620002d4576000855562000320565b82601f10620002ef57805160ff191683800117855562000320565b8280016001018555821562000320579182015b828111156200031f57825182559160200191906001019062000302565b5b5090506200032f919062000333565b5090565b5b808211156200034e57600081600090555060010162000334565b5090565b600073ffffffffffffffffffffffffffffffffffffffff82169050919050565b60006200037f8262000352565b9050919050565b620003918162000372565b82525050565b6000604082019050620003ae600083018562000386565b620003bd602083018462000386565b9392505050565b7f4e487b7100000000000000000000000000000000000000000000000000000000600052602260045260246000fd5b600060028204905060018216806200040c57607f821691505b602082108103620004225762000421620003c4565b5b50919050565b61542880620004386000396000f3fe608060405234801561001057600080fd5b50600436106101e55760003560e01c80636352211e1161010f578063b187bd26116100a2578063d547cfb711610071578063d547cfb7146105a0578063e985e9c5146105be578063f2fde38b146105ee578063f6cff56a1461060a576101e5565b8063b187bd2614610506578063b88d4fde14610524578063c22fc39814610540578063c87b56dd14610570576101e5565b8063893d20e8116100de578063893d20e81461047e57806395d89b411461049c578063a01f5e75146104ba578063a22cb465146104ea576101e5565b80636352211e1461040a5780636985a0221461043a57806370a08231146104445780637805862f14610474576101e5565b806327dc297e1161018757806342842e0e1161015657806342842e0e1461037257806343cd76fc1461038e5780634aab7447146103be5780634f6ccce7146103da576101e5565b806327dc297e146102da5780632f745c59146102f657806338bbfa501461032657806340c10f1914610342576101e5565b8063095ea7b3116101c3578063095ea7b31461026857806318160ddd146102845780631fd960da146102a257806323b872dd146102be576101e5565b806301ffc9a7146101ea57806306fdde031461021a578063081812fc14610238575b600080fd5b61020460048036038101906101ff9190613b81565b61063a565b6040516102119190613bc9565b60405180910390f35b6102226106a2565b60405161022f9190613c7d565b60405180910390f35b610252600480360381019061024d9190613cd5565b610734565b60405161025f9190613d43565b60405180910390f35b610282600480360381019061027d9190613d8a565b610771565b005b61028c61091d565b6040516102999190613dd9565b60405180910390f35b6102bc60048036038101906102b79190614034565b61092a565b005b6102d860048036038101906102d3919061409d565b6109fe565b005b6102f460048036038101906102ef91906141db565b610a21565b005b610310600480360381019061030b9190613d8a565b610a7d565b60405161031d9190613dd9565b60405180910390f35b610340600480360381019061033b91906142d8565b610af7565b005b61035c60048036038101906103579190613d8a565b610b1a565b6040516103699190613bc9565b60405180910390f35b61038c6004803603810190610387919061409d565b610c22565b005b6103a860048036038101906103a39190614363565b610c42565b6040516103b59190613bc9565b60405180910390f35b6103d860048036038101906103d39190614456565b610d0f565b005b6103f460048036038101906103ef9190613cd5565b610eba565b6040516104019190613dd9565b60405180910390f35b610424600480360381019061041f9190613cd5565b610ef5565b6040516104319190613d43565b60405180910390f35b610442610f32565b005b61045e600480360381019061045991906144e6565b61106a565b60405161046b9190613dd9565b60405180910390f35b61047c6110ba565b005b6104866111f1565b6040516104939190613d43565b60405180910390f35b6104a461121a565b6040516104b19190613c7d565b60405180910390f35b6104d460048036038101906104cf9190614513565b6112ac565b6040516104e19190613bc9565b60405180910390f35b61050460048036038101906104ff919061456c565b6112d7565b005b61050e61140c565b60405161051b9190613bc9565b60405180910390f35b61053e600480360381019061053991906145ac565b611422565b005b61055a6004803603810190610555919061462f565b611448565b60405161056791906146bb565b60405180910390f35b61058a60048036038101906105859190613cd5565b611484565b6040516105979190613c7d565b60405180910390f35b6105a8611585565b6040516105b59190613c7d565b60405180910390f35b6105d860048036038101906105d391906146d6565b611617565b6040516105e59190613bc9565b60405180910390f35b610608600480360381019061060391906144e6565b6116ab565b005b610624600480360381019061061f9190614716565b61186b565b6040516106319190613bc9565b60405180910390f35b600060016000837bffffffffffffffffffffffffffffffffffffffffffffffffffffffff19167bffffffffffffffffffffffffffffffffffffffffffffffffffffffff1916815260200190815260200160002060009054906101000a900460ff169050919050565b6060600f80546106b19061479a565b80601f01602080910402602001604051908101604052809291908181526020018280546106dd9061479a565b801561072a5780601f106106ff5761010080835404028352916020019161072a565b820191906000526020600020905b81548152906001019060200180831161070d57829003601f168201915b5050505050905090565b60006003600083815260200190815260200160002060009054906101000a900473ffffffffffffffffffffffffffffffffffffffff169050919050565b600061077c82610ef5565b90508273ffffffffffffffffffffffffffffffffffffffff168173ffffffffffffffffffffffffffffffffffffffff16036107ec576040517f08c379a00000000000000000000000000000000000000000000000000000000081526004016107e39061483d565b60405180910390fd5b3373ffffffffffffffffffffffffffffffffffffffff168173ffffffffffffffffffffffffffffffffffffffff16148061082c575061082b8133611617565b5b61086b576040517f08c379a0000000000000000000000000000000000000000000000000000000008152600401610862906148cf565b60405180910390fd5b826003600084815260200190815260200160002060006101000a81548173ffffffffffffffffffffffffffffffffffffffff021916908373ffffffffffffffffffffffffffffffffffffffff160217905550818373ffffffffffffffffffffffffffffffffffffffff168273ffffffffffffffffffffffffffffffffffffffff167f8c5be1e5ebec7d5bd14f71427d1e84f3dd0314c0f7b2291e5b200ac8c7c3b92560405160405180910390a4505050565b6000600880549050905090565b6000806000610938856118f1565b925092509250600061094d8885858589611448565b9050610958816112ac565b610997576040517f08c379a000000000000000000000000000000000000000000000000000000000815260040161098e9061493b565b60405180910390fd5b6109a18686610c42565b6109e0576040517f08c379a00000000000000000000000000000000000000000000000000000000081526004016109d7906149a7565b60405180910390fd5b6109e981611a16565b6109f38888610b1a565b505050505050505050565b610a083382611b27565b610a1157600080fd5b610a1c838383611bbc565b505050565b610a798282600067ffffffffffffffff811115610a4157610a40613df9565b5b6040519080825280601f01601f191660200182016040528015610a735781602001600182028036833780820191505090505b50610af7565b5050565b6000610a888361106a565b8210610a9357600080fd5b600660008473ffffffffffffffffffffffffffffffffffffffff1673ffffffffffffffffffffffffffffffffffffffff1681526020019081526020016000208281548110610ae457610ae36149c7565b5b9060005260206000200154905092915050565b6000801b600d60008060001b815260200190815260200160002081905550505050565b60008060009054906101000a900473ffffffffffffffffffffffffffffffffffffffff1673ffffffffffffffffffffffffffffffffffffffff163373ffffffffffffffffffffffffffffffffffffffff1614610bab576040517f08c379a0000000000000000000000000000000000000000000000000000000008152600401610ba290614a68565b60405180910390fd5b60001515600060149054906101000a900460ff16151514610c01576040517f08c379a0000000000000000000000000000000000000000000000000000000008152600401610bf890614ad4565b60405180910390fd5b60009050610c0f8383611be0565b610c1882611c01565b6001905092915050565b610c3d83838360405180602001604052806000815250611422565b505050565b600080600267ffffffffffffffff811115610c6057610c5f613df9565b5b604051908082528060200260200182016040528015610c8e5781602001602082028036833780820191505090505b50905060005b6002811015610ce757838160028110610cb057610caf6149c7565b5b6020020151828281518110610cc857610cc76149c7565b5b6020026020010181815250508080610cdf90614b23565b915050610c94565b506000610cf48286611d11565b03610d03576001915050610d09565b60009150505b92915050565b6000610d1e8786868686611448565b9050610d29816112ac565b610d68576040517f08c379a0000000000000000000000000000000000000000000000000000000008152600401610d5f9061493b565b60405180910390fd5b60006040518060600160405280604051806040016040528089600060028110610d9457610d936149c7565b5b6020020151815260200189600160028110610db257610db16149c7565b5b60200201518152508152602001604051806040016040528088600060028110610dde57610ddd6149c7565b5b6020020151815260200188600160028110610dfc57610dfb6149c7565b5b60200201518152508152602001604051806040016040528087600060028110610e2857610e276149c7565b5b6020020151815260200187600160028110610e4657610e456149c7565b5b60200201518152508152509050610e5d8184610c42565b610e9c576040517f08c379a0000000000000000000000000000000000000000000000000000000008152600401610e93906149a7565b60405180910390fd5b610ea582611a16565b610eaf8888610b1a565b505050505050505050565b6000610ec461091d565b8210610ecf57600080fd5b60088281548110610ee357610ee26149c7565b5b90600052602060002001549050919050565b60006002600083815260200190815260200160002060009054906101000a900473ffffffffffffffffffffffffffffffffffffffff169050919050565b60008054906101000a900473ffffffffffffffffffffffffffffffffffffffff1673ffffffffffffffffffffffffffffffffffffffff163373ffffffffffffffffffffffffffffffffffffffff1614610fc0576040517f08c379a0000000000000000000000000000000000000000000000000000000008152600401610fb790614a68565b60405180910390fd5b60001515600060149054906101000a900460ff16151514611016576040517f08c379a000000000000000000000000000000000000000000000000000000000815260040161100d90614ad4565b60405180910390fd5b6001600060146101000a81548160ff0219169083151502179055507f62e78cea01bee320cd4e420270b5ea74000d11b0c9f74754ebdbfc544b05a258336040516110609190613d43565b60405180910390a1565b60006110b3600460008473ffffffffffffffffffffffffffffffffffffffff1673ffffffffffffffffffffffffffffffffffffffff168152602001908152602001600020611ea8565b9050919050565b60008054906101000a900473ffffffffffffffffffffffffffffffffffffffff1673ffffffffffffffffffffffffffffffffffffffff163373ffffffffffffffffffffffffffffffffffffffff1614611148576040517f08c379a000000000000000000000000000000000000000000000000000000000815260040161113f90614a68565b60405180910390fd5b60011515600060149054906101000a900460ff1615151461119e576040517f08c379a000000000000000000000000000000000000000000000000000000000815260040161119590614bb7565b60405180910390fd5b60008060146101000a81548160ff0219169083151502179055507f5db9ee0a495bf2e6ff9c91a7834c1ba4fdd244a5e8aa4e537bd38aeae4b073aa336040516111e79190613d43565b60405180910390a1565b60008060009054906101000a900473ffffffffffffffffffffffffffffffffffffffff16905090565b6060601080546112299061479a565b80601f01602080910402602001604051908101604052809291908181526020018280546112559061479a565b80156112a25780601f10611277576101008083540402835291602001916112a2565b820191906000526020600020905b81548152906001019060200180831161128557829003601f168201915b5050505050905090565b60006014600083815260200190815260200160002060009054906101000a900460ff16159050919050565b3373ffffffffffffffffffffffffffffffffffffffff168273ffffffffffffffffffffffffffffffffffffffff160361130f57600080fd5b80600560003373ffffffffffffffffffffffffffffffffffffffff1673ffffffffffffffffffffffffffffffffffffffff16815260200190815260200160002060008473ffffffffffffffffffffffffffffffffffffffff1673ffffffffffffffffffffffffffffffffffffffff16815260200190815260200160002060006101000a81548160ff0219169083151502179055508173ffffffffffffffffffffffffffffffffffffffff163373ffffffffffffffffffffffffffffffffffffffff167f17307eab39ab6107e8899845ad3d59bd9653f200f220920489ca2b5937696c31836040516114009190613bc9565b60405180910390a35050565b60008060149054906101000a900460ff16905090565b61142d8484846109fe565b61143984848484611eb6565b61144257600080fd5b50505050565b60008585858585604051602001611463959493929190614dc8565b60405160208183030381529060405280519060200120905095945050505050565b60608161149081611fbe565b6114cf576040517f08c379a00000000000000000000000000000000000000000000000000000000081526004016114c690614e73565b60405180910390fd5b6114d883611fbe565b6114e157600080fd5b6012600084815260200190815260200160002080546114ff9061479a565b80601f016020809104026020016040519081016040528092919081815260200182805461152b9061479a565b80156115785780601f1061154d57610100808354040283529160200191611578565b820191906000526020600020905b81548152906001019060200180831161155b57829003601f168201915b5050505050915050919050565b6060601180546115949061479a565b80601f01602080910402602001604051908101604052809291908181526020018280546115c09061479a565b801561160d5780601f106115e25761010080835404028352916020019161160d565b820191906000526020600020905b8154815290600101906020018083116115f057829003601f168201915b5050505050905090565b6000600560008473ffffffffffffffffffffffffffffffffffffffff1673ffffffffffffffffffffffffffffffffffffffff16815260200190815260200160002060008373ffffffffffffffffffffffffffffffffffffffff1673ffffffffffffffffffffffffffffffffffffffff16815260200190815260200160002060009054906101000a900460ff16905092915050565b60008054906101000a900473ffffffffffffffffffffffffffffffffffffffff1673ffffffffffffffffffffffffffffffffffffffff163373ffffffffffffffffffffffffffffffffffffffff1614611739576040517f08c379a000000000000000000000000000000000000000000000000000000000815260040161173090614a68565b60405180910390fd5b600073ffffffffffffffffffffffffffffffffffffffff168173ffffffffffffffffffffffffffffffffffffffff16036117a8576040517f08c379a000000000000000000000000000000000000000000000000000000000815260040161179f90614edf565b60405180910390fd5b60008060009054906101000a900473ffffffffffffffffffffffffffffffffffffffff169050816000806101000a81548173ffffffffffffffffffffffffffffffffffffffff021916908373ffffffffffffffffffffffffffffffffffffffff1602179055507feb754dc7308dac6c3f9d6a83c6e1b2c38a4301a2f19d4dcec0d4f54a3ca44b6b8160008054906101000a900473ffffffffffffffffffffffffffffffffffffffff1660405161185f929190614eff565b60405180910390a15050565b60008060008061187a866118f1565b925092509250600061188f888585858a611448565b905061189a816112ac565b6118d9576040517f08c379a00000000000000000000000000000000000000000000000000000000081526004016118d09061493b565b60405180910390fd5b6118e281611a16565b60019450505050509392505050565b6118f9613936565b611901613958565b611909613936565b611911613936565b8460000151600001518160006002811061192e5761192d6149c7565b5b60200201818152505084600001516020015181600160028110611954576119536149c7565b5b602002018181525050611965613958565b85602001516000015181600060028110611982576119816149c7565b5b6020020181905250856020015160200151816001600281106119a7576119a66149c7565b5b60200201819052506119b7613936565b866040015160000151816000600281106119d4576119d36149c7565b5b602002018181525050866040015160200151816001600281106119fa576119f96149c7565b5b6020020181815250508282829550955095505050509193909250565b601360405180604001604052803373ffffffffffffffffffffffffffffffffffffffff16815260200183815250908060018154018082558091505060019003906000526020600020906002020160009091909190915060008201518160000160006101000a81548173ffffffffffffffffffffffffffffffffffffffff021916908373ffffffffffffffffffffffffffffffffffffffff16021790555060208201518160010155505060016014600083815260200190815260200160002060006101000a81548160ff0219169083151502179055507fcafef32a03d67cb41de6536837091cd24bb0090648f28e1d13195dc48cde6fad3382604051611b1c929190614f28565b60405180910390a150565b600080611b3383610ef5565b90508073ffffffffffffffffffffffffffffffffffffffff168473ffffffffffffffffffffffffffffffffffffffff161480611ba257508373ffffffffffffffffffffffffffffffffffffffff16611b8a84610734565b73ffffffffffffffffffffffffffffffffffffffff16145b80611bb35750611bb28185611617565b5b91505092915050565b611bc7838383612030565b611bd1838261225e565b611bdb828261241c565b505050565b611bea82826124e0565b611bf4828261241c565b611bfd81612690565b5050565b80611c0b81611fbe565b611c4a576040517f08c379a0000000000000000000000000000000000000000000000000000000008152600401611c4190614e73565b60405180910390fd5b611ce660118054611c5a9061479a565b80601f0160208091040260200160405190810160405280929190818152602001828054611c869061479a565b8015611cd35780601f10611ca857610100808354040283529160200191611cd3565b820191906000526020600020905b815481529060010190602001808311611cb657829003601f168201915b5050505050611ce1846126d9565b612861565b601260008481526020019081526020016000209080519060200190611d0c929190613985565b505050565b6000807f30644e72e131a029b85045b68181585d2833e84879b9709143e1f593f000000190506000611d416128a5565b905080608001515160018651611d579190614f51565b14611d6157600080fd5b60006040518060400160405280600081526020016000815250905060005b8651811015611e1a5783878281518110611d9c57611d9b6149c7565b5b602002602001015110611dae57600080fd5b611e0582611e008560800151600185611dc79190614f51565b81518110611dd857611dd76149c7565b5b60200260200101518a8581518110611df357611df26149c7565b5b6020026020010151612d20565b612dc2565b91508080611e1290614b23565b915050611d7f565b50611e44818360800151600081518110611e3757611e366149c7565b5b6020026020010151612dc2565b9050611e8a85600001518660200151611e5c84612e8a565b8560400151611e6e8a60400151612e8a565b8760600151611e808960000151612e8a565b8960200151612f2f565b611e9a5760019350505050611ea2565b600093505050505b92915050565b600081600001549050919050565b6000611ed78473ffffffffffffffffffffffffffffffffffffffff166130fc565b611ee45760019050611fb6565b60008473ffffffffffffffffffffffffffffffffffffffff1663150b7a02338887876040518563ffffffff1660e01b8152600401611f259493929190614ffc565b6020604051808303816000875af1158015611f44573d6000803e3d6000fd5b505050506040513d601f19601f82011682018060405250810190611f68919061505d565b905063150b7a0260e01b7bffffffffffffffffffffffffffffffffffffffffffffffffffffffff1916817bffffffffffffffffffffffffffffffffffffffffffffffffffffffff1916149150505b949350505050565b6000806002600084815260200190815260200160002060009054906101000a900473ffffffffffffffffffffffffffffffffffffffff169050600073ffffffffffffffffffffffffffffffffffffffff168173ffffffffffffffffffffffffffffffffffffffff161415915050919050565b61203981610ef5565b73ffffffffffffffffffffffffffffffffffffffff168373ffffffffffffffffffffffffffffffffffffffff16146120a6576040517f08c379a000000000000000000000000000000000000000000000000000000000815260040161209d906150fc565b60405180910390fd5b600073ffffffffffffffffffffffffffffffffffffffff168273ffffffffffffffffffffffffffffffffffffffff1603612115576040517f08c379a000000000000000000000000000000000000000000000000000000000815260040161210c90615168565b60405180910390fd5b61211e8161311f565b816002600083815260200190815260200160002060006101000a81548173ffffffffffffffffffffffffffffffffffffffff021916908373ffffffffffffffffffffffffffffffffffffffff1602179055506121b7600460008573ffffffffffffffffffffffffffffffffffffffff1673ffffffffffffffffffffffffffffffffffffffff1681526020019081526020016000206131dd565b6121fe600460008473ffffffffffffffffffffffffffffffffffffffff1673ffffffffffffffffffffffffffffffffffffffff168152602001908152602001600020613239565b808273ffffffffffffffffffffffffffffffffffffffff168473ffffffffffffffffffffffffffffffffffffffff167fddf252ad1be2c89b69c2b068fc378daa952ba7f163c4a11628f55a4df523b3ef60405160405180910390a4505050565b60006122b66001600660008673ffffffffffffffffffffffffffffffffffffffff1673ffffffffffffffffffffffffffffffffffffffff1681526020019081526020016000208054905061324f90919063ffffffff16565b90506000600760008481526020019081526020016000205490508181146123b1576000600660008673ffffffffffffffffffffffffffffffffffffffff1673ffffffffffffffffffffffffffffffffffffffff168152602001908152602001600020838154811061232a576123296149c7565b5b9060005260206000200154905080600660008773ffffffffffffffffffffffffffffffffffffffff1673ffffffffffffffffffffffffffffffffffffffff1681526020019081526020016000208381548110612389576123886149c7565b5b9060005260206000200181905550816007600083815260200190815260200160002081905550505b600660008573ffffffffffffffffffffffffffffffffffffffff1673ffffffffffffffffffffffffffffffffffffffff168152602001908152602001600020805480612400576123ff615188565b5b6001900381819060005260206000200160009055905550505050565b600660008373ffffffffffffffffffffffffffffffffffffffff1673ffffffffffffffffffffffffffffffffffffffff168152602001908152602001600020805490506007600083815260200190815260200160002081905550600660008373ffffffffffffffffffffffffffffffffffffffff1673ffffffffffffffffffffffffffffffffffffffff1681526020019081526020016000208190806001815401808255809150506001900390600052602060002001600090919091909150555050565b6124e981611fbe565b15612529576040517f08c379a000000000000000000000000000000000000000000000000000000000815260040161252090615203565b60405180910390fd5b600073ffffffffffffffffffffffffffffffffffffffff168273ffffffffffffffffffffffffffffffffffffffff1603612598576040517f08c379a000000000000000000000000000000000000000000000000000000000815260040161258f90615168565b60405180910390fd5b816002600083815260200190815260200160002060006101000a81548173ffffffffffffffffffffffffffffffffffffffff021916908373ffffffffffffffffffffffffffffffffffffffff160217905550612631600460008473ffffffffffffffffffffffffffffffffffffffff1673ffffffffffffffffffffffffffffffffffffffff168152602001908152602001600020613239565b808273ffffffffffffffffffffffffffffffffffffffff163373ffffffffffffffffffffffffffffffffffffffff167fddf252ad1be2c89b69c2b068fc378daa952ba7f163c4a11628f55a4df523b3ef60405160405180910390a45050565b6008805490506009600083815260200190815260200160002081905550600881908060018154018082558091505060019003906000526020600020016000909190919091505550565b606060008203612720576040518060400160405280600181526020017f3000000000000000000000000000000000000000000000000000000000000000815250905061285c565b600082905060005b6000821461275257808061273b90614b23565b915050600a8261274b9190615252565b9150612728565b60008167ffffffffffffffff81111561276e5761276d613df9565b5b6040519080825280601f01601f1916602001820160405280156127a05781602001600182028036833780820191505090505b50905060008290505b60008614612854576001816127be9190615283565b90506000600a80886127d09190615252565b6127da91906152b7565b876127e59190615283565b60306127f1919061531e565b905060008160f81b90508084848151811061280f5761280e6149c7565b5b60200101907effffffffffffffffffffffffffffffffffffffffffffffffffffffffffffff1916908160001a905350600a8861284b9190615252565b975050506127a9565b819450505050505b919050565b606061289d8383604051806020016040528060008152506040518060200160405280600081525060405180602001604052806000815250613265565b905092915050565b6128ad613a0b565b60405180604001604052807f1f8c43b3f3b4cf1d617e4a9345390235bf1390d126a20f5cbe8146ac5788372181526020017f1b6a4c0559d55807938749975bfb34a1a5b80100669c25f28438aed71b9251be8152508160000181905250604051806040016040528060405180604001604052807f2b9c50e23c2c74c97cb613d0a6dd7732970b1764ab47b87f86d45e4e5157d78e81526020017f1ec223c7c0a5b90ff207cdf575f962553f80953c2c916a5a671df85f56e28747815250815260200160405180604001604052807f01d925b2427050f411222ed5a214c4e474b396da362b78a6bbc03bd08b4b8ab581526020017f2b9a28388ce4953b0cc23f2e28cefee264688eea74bbb59fd92864800b5d865f8152508152508160200181905250604051806040016040528060405180604001604052807f0cfe070c0bca420c8f54717c8fc77477bccffc6f89c459caf295f3edda1eb58881526020017f1e0ebd256dcfc168db0b2b3e10770102a2257bce7e7bf0527f622b549e726541815250815260200160405180604001604052807f2319cedaa842bdb3eb9eae9dc9d51f6d32a02e8591270690d31c95f020bfc44981526020017f23213a07a193f67fcc315f4be19586a85dc29ad7881da829eca3aca004ee29508152508152508160400181905250604051806040016040528060405180604001604052807f252102b888bfb0663d497285efb0c0afbe0aea0be4976c31bd72778a505229ae81526020017f0e36868205280063c576282a765dbb7e914f879f667c3d42db064e38ada3c5f7815250815260200160405180604001604052807e540abd397f3b63bcb5e9817e1961bd16f134b72a03eb36434026f03fca9ccb81526020017f19cc4eb0a709a2fce71213d246a4edf7069d9bbb3544e87cdfa809e3523c1bcd8152508152508160600181905250600367ffffffffffffffff811115612b7357612b72613df9565b5b604051908082528060200260200182016040528015612bac57816020015b612b99613a52565b815260200190600190039081612b915790505b50816080018190525060405180604001604052807f1b4ebf13d93b23932b0b415711135c4f1b2e9d3465cd56a98cdb763c05dee62d81526020017f2fe8bf06185326b2b46698594c55873249a5c416236669d0bdcee7a8e3a4fec58152508160800151600081518110612c2257612c216149c7565b5b602002602001018190525060405180604001604052807f2b7d936fc5b6476835f3e3c4bceb47d4c5a1dfb6712a2c32a6abd94d264752f781526020017f0fc0624060ed4f8d8aadfd5117c1364cbfd2db2699ef9522f0f4e9a0afee121c8152508160800151600181518110612c9a57612c996149c7565b5b602002602001018190525060405180604001604052807f1ee737fe30c573fa91efe4d3c8db767d63e99753d74886d8d03846eb114046b781526020017f0b6e57ea5946c17f2f92c862b4a02a981a40ede9296db568f79cc961006c94f28152508160800151600281518110612d1257612d116149c7565b5b602002602001018190525090565b612d28613a52565b612d30613a6c565b836000015181600060038110612d4957612d486149c7565b5b602002018181525050836020015181600160038110612d6b57612d6a6149c7565b5b6020020181815250508281600260038110612d8957612d886149c7565b5b602002018181525050600060608360808460076107d05a03fa90508060008103612daf57fe5b5080612dba57600080fd5b505092915050565b612dca613a52565b612dd2613a8e565b836000015181600060048110612deb57612dea6149c7565b5b602002018181525050836020015181600160048110612e0d57612e0c6149c7565b5b602002018181525050826000015181600260048110612e2f57612e2e6149c7565b5b602002018181525050826020015181600360048110612e5157612e506149c7565b5b602002018181525050600060608360c08460066107d05a03fa90508060008103612e7757fe5b5080612e8257600080fd5b505092915050565b612e92613a52565b60007f30644e72e131a029b85045b68181585d97816a916871ca8d3c208c16d87cfd47905060008360000151148015612ecf575060008360200151145b15612ef3576040518060400160405280600081526020016000815250915050612f2a565b604051806040016040528084600001518152602001828560200151612f189190615355565b83612f239190615283565b8152509150505b919050565b600080600467ffffffffffffffff811115612f4d57612f4c613df9565b5b604051908082528060200260200182016040528015612f8657816020015b612f73613a52565b815260200190600190039081612f6b5790505b5090506000600467ffffffffffffffff811115612fa657612fa5613df9565b5b604051908082528060200260200182016040528015612fdf57816020015b612fcc613ab0565b815260200190600190039081612fc45790505b5090508a82600081518110612ff757612ff66149c7565b5b60200260200101819052508882600181518110613017576130166149c7565b5b60200260200101819052508682600281518110613037576130366149c7565b5b60200260200101819052508482600381518110613057576130566149c7565b5b60200260200101819052508981600081518110613077576130766149c7565b5b60200260200101819052508781600181518110613097576130966149c7565b5b602002602001018190525085816002815181106130b7576130b66149c7565b5b602002602001018190525083816003815181106130d7576130d66149c7565b5b60200260200101819052506130ec82826135e0565b9250505098975050505050505050565b6000808273ffffffffffffffffffffffffffffffffffffffff163b119050919050565b600073ffffffffffffffffffffffffffffffffffffffff166003600083815260200190815260200160002060009054906101000a900473ffffffffffffffffffffffffffffffffffffffff1673ffffffffffffffffffffffffffffffffffffffff16146131da5760006003600083815260200190815260200160002060006101000a81548173ffffffffffffffffffffffffffffffffffffffff021916908373ffffffffffffffffffffffffffffffffffffffff1602179055505b50565b60008160000154905060008111613229576040517f08c379a0000000000000000000000000000000000000000000000000000000008152600401613220906153d2565b60405180910390fd5b6001810382600001819055505050565b6001816000016000828254019250508190555050565b6000818361325d9190615283565b905092915050565b6060600086905060008690506000869050600086905060008690506000815183518551875189516132969190614f51565b6132a09190614f51565b6132aa9190614f51565b6132b49190614f51565b67ffffffffffffffff8111156132cd576132cc613df9565b5b6040519080825280601f01601f1916602001820160405280156132ff5781602001600182028036833780820191505090505b5090506000819050600080600090505b88518110156133975788818151811061332b5761332a6149c7565b5b602001015160f81c60f81b83838061334290614b23565b945081518110613355576133546149c7565b5b60200101907effffffffffffffffffffffffffffffffffffffffffffffffffffffffffffff1916908160001a905350808061338f90614b23565b91505061330f565b600090505b8751811015613424578781815181106133b8576133b76149c7565b5b602001015160f81c60f81b8383806133cf90614b23565b9450815181106133e2576133e16149c7565b5b60200101907effffffffffffffffffffffffffffffffffffffffffffffffffffffffffffff1916908160001a905350808061341c90614b23565b91505061339c565b600090505b86518110156134b157868181518110613445576134446149c7565b5b602001015160f81c60f81b83838061345c90614b23565b94508151811061346f5761346e6149c7565b5b60200101907effffffffffffffffffffffffffffffffffffffffffffffffffffffffffffff1916908160001a90535080806134a990614b23565b915050613429565b600090505b855181101561353e578581815181106134d2576134d16149c7565b5b602001015160f81c60f81b8383806134e990614b23565b9450815181106134fc576134fb6149c7565b5b60200101907effffffffffffffffffffffffffffffffffffffffffffffffffffffffffffff1916908160001a905350808061353690614b23565b9150506134b6565b600090505b84518110156135cb5784818151811061355f5761355e6149c7565b5b602001015160f81c60f81b83838061357690614b23565b945081518110613589576135886149c7565b5b60200101907effffffffffffffffffffffffffffffffffffffffffffffffffffffffffffff1916908160001a90535080806135c390614b23565b915050613543565b82995050505050505050505095945050505050565b600081518351146135f057600080fd5b600083519050600060068261360591906152b7565b905060008167ffffffffffffffff81111561362357613622613df9565b5b6040519080825280602002602001820160405280156136515781602001602082028036833780820191505090505b50905060005b838110156138d657868181518110613672576136716149c7565b5b60200260200101516000015182600060068461368e91906152b7565b6136989190614f51565b815181106136a9576136a86149c7565b5b6020026020010181815250508681815181106136c8576136c76149c7565b5b6020026020010151602001518260016006846136e491906152b7565b6136ee9190614f51565b815181106136ff576136fe6149c7565b5b60200260200101818152505085818151811061371e5761371d6149c7565b5b60200260200101516000015160016002811061373d5761373c6149c7565b5b602002015182600260068461375291906152b7565b61375c9190614f51565b8151811061376d5761376c6149c7565b5b60200260200101818152505085818151811061378c5761378b6149c7565b5b6020026020010151600001516000600281106137ab576137aa6149c7565b5b60200201518260036006846137c091906152b7565b6137ca9190614f51565b815181106137db576137da6149c7565b5b6020026020010181815250508581815181106137fa576137f96149c7565b5b602002602001015160200151600160028110613819576138186149c7565b5b602002015182600460068461382e91906152b7565b6138389190614f51565b81518110613849576138486149c7565b5b602002602001018181525050858181518110613868576138676149c7565b5b602002602001015160200151600060028110613887576138866149c7565b5b602002015182600560068461389c91906152b7565b6138a69190614f51565b815181106138b7576138b66149c7565b5b60200260200101818152505080806138ce90614b23565b915050613657565b506138df613ad6565b6000602082602086026020860160086107d05a03fa9050806000810361390157fe5b508061390c57600080fd5b600082600060018110613922576139216149c7565b5b602002015114159550505050505092915050565b6040518060400160405280600290602082028036833780820191505090505090565b60405180604001604052806002905b61396f613936565b8152602001906001900390816139675790505090565b8280546139919061479a565b90600052602060002090601f0160209004810192826139b357600085556139fa565b82601f106139cc57805160ff19168380011785556139fa565b828001600101855582156139fa579182015b828111156139f95782518255916020019190600101906139de565b5b509050613a079190613af8565b5090565b6040518060a00160405280613a1e613a52565b8152602001613a2b613ab0565b8152602001613a38613ab0565b8152602001613a45613ab0565b8152602001606081525090565b604051806040016040528060008152602001600081525090565b6040518060600160405280600390602082028036833780820191505090505090565b6040518060800160405280600490602082028036833780820191505090505090565b6040518060400160405280613ac3613936565b8152602001613ad0613936565b81525090565b6040518060200160405280600190602082028036833780820191505090505090565b5b80821115613b11576000816000905550600101613af9565b5090565b6000604051905090565b600080fd5b600080fd5b60007fffffffff0000000000000000000000000000000000000000000000000000000082169050919050565b613b5e81613b29565b8114613b6957600080fd5b50565b600081359050613b7b81613b55565b92915050565b600060208284031215613b9757613b96613b1f565b5b6000613ba584828501613b6c565b91505092915050565b60008115159050919050565b613bc381613bae565b82525050565b6000602082019050613bde6000830184613bba565b92915050565b600081519050919050565b600082825260208201905092915050565b60005b83811015613c1e578082015181840152602081019050613c03565b83811115613c2d576000848401525b50505050565b6000601f19601f8301169050919050565b6000613c4f82613be4565b613c598185613bef565b9350613c69818560208601613c00565b613c7281613c33565b840191505092915050565b60006020820190508181036000830152613c978184613c44565b905092915050565b6000819050919050565b613cb281613c9f565b8114613cbd57600080fd5b50565b600081359050613ccf81613ca9565b92915050565b600060208284031215613ceb57613cea613b1f565b5b6000613cf984828501613cc0565b91505092915050565b600073ffffffffffffffffffffffffffffffffffffffff82169050919050565b6000613d2d82613d02565b9050919050565b613d3d81613d22565b82525050565b6000602082019050613d586000830184613d34565b92915050565b613d6781613d22565b8114613d7257600080fd5b50565b600081359050613d8481613d5e565b92915050565b60008060408385031215613da157613da0613b1f565b5b6000613daf85828601613d75565b9250506020613dc085828601613cc0565b9150509250929050565b613dd381613c9f565b82525050565b6000602082019050613dee6000830184613dca565b92915050565b600080fd5b7f4e487b7100000000000000000000000000000000000000000000000000000000600052604160045260246000fd5b613e3182613c33565b810181811067ffffffffffffffff82111715613e5057613e4f613df9565b5b80604052505050565b6000613e63613b15565b9050613e6f8282613e28565b919050565b600060408284031215613e8a57613e89613df4565b5b613e946040613e59565b90506000613ea484828501613cc0565b6000830152506020613eb884828501613cc0565b60208301525092915050565b600080fd5b600067ffffffffffffffff821115613ee457613ee3613df9565b5b602082029050919050565b600080fd5b6000613f07613f0284613ec9565b613e59565b90508060208402830185811115613f2157613f20613eef565b5b835b81811015613f4a5780613f368882613cc0565b845260208401935050602081019050613f23565b5050509392505050565b600082601f830112613f6957613f68613ec4565b5b6002613f76848285613ef4565b91505092915050565b600060808284031215613f9557613f94613df4565b5b613f9f6040613e59565b90506000613faf84828501613f54565b6000830152506040613fc384828501613f54565b60208301525092915050565b60006101008284031215613fe657613fe5613df4565b5b613ff06060613e59565b9050600061400084828501613e74565b600083015250604061401484828501613f7f565b60208301525060c061402884828501613e74565b60408301525092915050565b600080600080610180858703121561404f5761404e613b1f565b5b600061405d87828801613d75565b945050602061406e87828801613cc0565b935050604061407f87828801613fcf565b92505061014061409187828801613f54565b91505092959194509250565b6000806000606084860312156140b6576140b5613b1f565b5b60006140c486828701613d75565b93505060206140d586828701613d75565b92505060406140e686828701613cc0565b9150509250925092565b6000819050919050565b614103816140f0565b811461410e57600080fd5b50565b600081359050614120816140fa565b92915050565b600080fd5b600067ffffffffffffffff82111561414657614145613df9565b5b61414f82613c33565b9050602081019050919050565b82818337600083830152505050565b600061417e6141798461412b565b613e59565b90508281526020810184848401111561419a57614199614126565b5b6141a584828561415c565b509392505050565b600082601f8301126141c2576141c1613ec4565b5b81356141d284826020860161416b565b91505092915050565b600080604083850312156141f2576141f1613b1f565b5b600061420085828601614111565b925050602083013567ffffffffffffffff81111561422157614220613b24565b5b61422d858286016141ad565b9150509250929050565b600067ffffffffffffffff82111561425257614251613df9565b5b61425b82613c33565b9050602081019050919050565b600061427b61427684614237565b613e59565b90508281526020810184848401111561429757614296614126565b5b6142a284828561415c565b509392505050565b600082601f8301126142bf576142be613ec4565b5b81356142cf848260208601614268565b91505092915050565b6000806000606084860312156142f1576142f0613b1f565b5b60006142ff86828701614111565b935050602084013567ffffffffffffffff8111156143205761431f613b24565b5b61432c868287016141ad565b925050604084013567ffffffffffffffff81111561434d5761434c613b24565b5b614359868287016142aa565b9150509250925092565b600080610140838503121561437b5761437a613b1f565b5b600061438985828601613fcf565b92505061010061439b85828601613f54565b9150509250929050565b600067ffffffffffffffff8211156143c0576143bf613df9565b5b602082029050919050565b60006143de6143d9846143a5565b613e59565b905080604084028301858111156143f8576143f7613eef565b5b835b81811015614421578061440d8882613f54565b8452602084019350506040810190506143fa565b5050509392505050565b600082601f8301126144405761443f613ec4565b5b600261444d8482856143cb565b91505092915050565b600080600080600080610180878903121561447457614473613b1f565b5b600061448289828a01613d75565b965050602061449389828a01613cc0565b95505060406144a489828a01613f54565b94505060806144b589828a0161442b565b9350506101006144c789828a01613f54565b9250506101406144d989828a01613f54565b9150509295509295509295565b6000602082840312156144fc576144fb613b1f565b5b600061450a84828501613d75565b91505092915050565b60006020828403121561452957614528613b1f565b5b600061453784828501614111565b91505092915050565b61454981613bae565b811461455457600080fd5b50565b60008135905061456681614540565b92915050565b6000806040838503121561458357614582613b1f565b5b600061459185828601613d75565b92505060206145a285828601614557565b9150509250929050565b600080600080608085870312156145c6576145c5613b1f565b5b60006145d487828801613d75565b94505060206145e587828801613d75565b93505060406145f687828801613cc0565b925050606085013567ffffffffffffffff81111561461757614616613b24565b5b614623878288016142aa565b91505092959194509250565b6000806000806000610160868803121561464c5761464b613b1f565b5b600061465a88828901613d75565b955050602061466b88828901613f54565b945050606061467c8882890161442b565b93505060e061468d88828901613f54565b92505061012061469f88828901613f54565b9150509295509295909350565b6146b5816140f0565b82525050565b60006020820190506146d060008301846146ac565b92915050565b600080604083850312156146ed576146ec613b1f565b5b60006146fb85828601613d75565b925050602061470c85828601613d75565b9150509250929050565b600080600061016084860312156147305761472f613b1f565b5b600061473e86828701613d75565b935050602061474f86828701613fcf565b92505061012061476186828701613f54565b9150509250925092565b7f4e487b7100000000000000000000000000000000000000000000000000000000600052602260045260246000fd5b600060028204905060018216806147b257607f821691505b6020821081036147c5576147c461476b565b5b50919050565b7f546f6b656e20616c7265616479206f776e65642062792074686520746865207460008201527f6172676574202061646472657373000000000000000000000000000000000000602082015250565b6000614827602e83613bef565b9150614832826147cb565b604082019050919050565b600060208201905081810360008301526148568161481a565b9050919050565b7f5468652073656e646572206d75737420626520617070726f766564206f72206f60008201527f776e657200000000000000000000000000000000000000000000000000000000602082015250565b60006148b9602483613bef565b91506148c48261485d565b604082019050919050565b600060208201905081810360008301526148e8816148ac565b9050919050565b7f416c7265616479207573656420736f6c7574696f6e0000000000000000000000600082015250565b6000614925601583613bef565b9150614930826148ef565b602082019050919050565b6000602082019050818103600083015261495481614918565b9050919050565b7f496e76616c696420536f6c7574696f6e20706172616d73000000000000000000600082015250565b6000614991601783613bef565b915061499c8261495b565b602082019050919050565b600060208201905081810360008301526149c081614984565b9050919050565b7f4e487b7100000000000000000000000000000000000000000000000000000000600052603260045260246000fd5b7f4f6e6c7920746865206f776e6572206f662074686520636f6e7472616374206360008201527f616e2063616c6c20746869732066756e6374696f6e0000000000000000000000602082015250565b6000614a52603583613bef565b9150614a5d826149f6565b604082019050919050565b60006020820190508181036000830152614a8181614a45565b9050919050565b7f436f6e7472616374207061757365640000000000000000000000000000000000600082015250565b6000614abe600f83613bef565b9150614ac982614a88565b602082019050919050565b60006020820190508181036000830152614aed81614ab1565b9050919050565b7f4e487b7100000000000000000000000000000000000000000000000000000000600052601160045260246000fd5b6000614b2e82613c9f565b91507fffffffffffffffffffffffffffffffffffffffffffffffffffffffffffffffff8203614b6057614b5f614af4565b5b600182019050919050565b7f436f6e7472616374204e6f742070617573656400000000000000000000000000600082015250565b6000614ba1601383613bef565b9150614bac82614b6b565b602082019050919050565b60006020820190508181036000830152614bd081614b94565b9050919050565b60008160601b9050919050565b6000614bef82614bd7565b9050919050565b6000614c0182614be4565b9050919050565b614c19614c1482613d22565b614bf6565b82525050565b600060029050919050565b600081905092915050565b6000819050919050565b614c4881613c9f565b82525050565b6000614c5a8383614c3f565b60208301905092915050565b6000602082019050919050565b614c7c81614c1f565b614c868184614c2a565b9250614c9182614c35565b8060005b83811015614cc2578151614ca98782614c4e565b9650614cb483614c66565b925050600181019050614c95565b505050505050565b600060029050919050565b600081905092915050565b6000819050919050565b600081905092915050565b614cfe81614c1f565b614d088184614cea565b9250614d1382614c35565b8060005b83811015614d44578151614d2b8782614c4e565b9650614d3683614c66565b925050600181019050614d17565b505050505050565b6000614d588383614cf5565b60408301905092915050565b6000602082019050919050565b614d7a81614cca565b614d848184614cd5565b9250614d8f82614ce0565b8060005b83811015614dc0578151614da78782614d4c565b9650614db283614d64565b925050600181019050614d93565b505050505050565b6000614dd48288614c08565b601482019150614de48287614c73565b604082019150614df48286614d71565b608082019150614e048285614c73565b604082019150614e148284614c73565b6040820191508190509695505050505050565b7f546f6b656e206d75737420657869737400000000000000000000000000000000600082015250565b6000614e5d601083613bef565b9150614e6882614e27565b602082019050919050565b60006020820190508181036000830152614e8c81614e50565b9050919050565b7f496e76616c6964206f77656e7220616464726573730000000000000000000000600082015250565b6000614ec9601583613bef565b9150614ed482614e93565b602082019050919050565b60006020820190508181036000830152614ef881614ebc565b9050919050565b6000604082019050614f146000830185613d34565b614f216020830184613d34565b9392505050565b6000604082019050614f3d6000830185613d34565b614f4a60208301846146ac565b9392505050565b6000614f5c82613c9f565b9150614f6783613c9f565b9250827fffffffffffffffffffffffffffffffffffffffffffffffffffffffffffffffff03821115614f9c57614f9b614af4565b5b828201905092915050565b600081519050919050565b600082825260208201905092915050565b6000614fce82614fa7565b614fd88185614fb2565b9350614fe8818560208601613c00565b614ff181613c33565b840191505092915050565b60006080820190506150116000830187613d34565b61501e6020830186613d34565b61502b6040830185613dca565b818103606083015261503d8184614fc3565b905095945050505050565b60008151905061505781613b55565b92915050565b60006020828403121561507357615072613b1f565b5b600061508184828501615048565b91505092915050565b7f6f776e6572206f662074686520746f6b656e2063616e207472616e736665722060008201527f66726f6d00000000000000000000000000000000000000000000000000000000602082015250565b60006150e6602483613bef565b91506150f18261508a565b604082019050919050565b60006020820190508181036000830152615115816150d9565b9050919050565b7f496e76616c696420416464726573730000000000000000000000000000000000600082015250565b6000615152600f83613bef565b915061515d8261511c565b602082019050919050565b6000602082019050818103600083015261518181615145565b9050919050565b7f4e487b7100000000000000000000000000000000000000000000000000000000600052603160045260246000fd5b7f416c72657261647920546f6b656e206578697374730000000000000000000000600082015250565b60006151ed601583613bef565b91506151f8826151b7565b602082019050919050565b6000602082019050818103600083015261521c816151e0565b9050919050565b7f4e487b7100000000000000000000000000000000000000000000000000000000600052601260045260246000fd5b600061525d82613c9f565b915061526883613c9f565b92508261527857615277615223565b5b828204905092915050565b600061528e82613c9f565b915061529983613c9f565b9250828210156152ac576152ab614af4565b5b828203905092915050565b60006152c282613c9f565b91506152cd83613c9f565b9250817fffffffffffffffffffffffffffffffffffffffffffffffffffffffffffffffff048311821515161561530657615305614af4565b5b828202905092915050565b600060ff82169050919050565b600061532982615311565b915061533483615311565b92508260ff0382111561534a57615349614af4565b5b828201905092915050565b600061536082613c9f565b915061536b83613c9f565b92508261537b5761537a615223565b5b828206905092915050565b7f436f756e7465723a2064656372656d656e74206f766572666c6f770000000000600082015250565b60006153bc601b83613bef565b91506153c782615386565b602082019050919050565b600060208201905081810360008301526153eb816153af565b905091905056fea2646970667358221220462018125385f06092f18a0d219ed2f6f7526ccf574aefdc404594eea6d768a164736f6c634300080d003368747470733a2f2f73332d75732d776573742d322e616d617a6f6e6177732e636f6d2f756461636974792d626c6f636b636861696e2f63617073746f6e652f",
  "immutableReferences": {},
  "source": "// SPDX-License-Identifier: MIT\npragma solidity >=0.8.0;\n\nimport \"./Verifier.sol\";\nimport \"./CRNFT.sol\";\n\ncontract SolnSquareVerifier is CRNFT, Verifier {\n    struct Solution {\n        address solver;\n        bytes32 key;\n    }\n\n    Solution[] private _solutions;\n    mapping(bytes32 => bool) private _uniqueSolutions;\n    event SolutionAdded(address solver, bytes32 key);\n\n    function isUniqueSolution(bytes32 key) public view returns (bool) {\n        return !_uniqueSolutions[key];\n    }\n\n    function addSolution(\n        address to,\n        Verifier.Proof memory proof,\n        uint256[2] memory input\n    ) external returns (bool) {\n        (\n            uint256[2] memory a,\n            uint256[2][2] memory b,\n            uint256[2] memory c\n        ) = unpackProof(proof);\n\n        bytes32 key = buildKey(to, a, b, c, input);\n        require(isUniqueSolution(key), \"Already used solution\");\n\n        _addSolution(key);\n\n        return true;\n    }\n\n    function _addSolution(bytes32 key) internal {\n        _solutions.push(Solution({solver: msg.sender, key: key}));\n        _uniqueSolutions[key] = true;\n\n        emit SolutionAdded(msg.sender, key);\n    }\n\n    function buildKey(\n        address to,\n        uint256[2] memory a,\n        uint256[2][2] memory b,\n        uint256[2] memory c,\n        uint256[2] memory input\n    ) public pure returns (bytes32) {\n        return keccak256(abi.encodePacked(to, a, b, c, input));\n    }\n\n    function unpackProof(Verifier.Proof memory proof)\n        internal\n        pure\n        returns (\n            uint256[2] memory,\n            uint256[2][2] memory,\n            uint256[2] memory\n        )\n    {\n        uint256[2] memory a;\n        a[0] = proof.a.X;\n        a[1] = proof.a.Y;\n\n        uint256[2][2] memory b;\n        b[0] = proof.b.X;\n        b[1] = proof.b.Y;\n\n        uint256[2] memory c;\n        c[0] = proof.c.X;\n        c[1] = proof.c.Y;\n\n        return (a, b, c);\n    }\n\n    function mintNFTbasic(\n        address to,\n        uint256 tokenId,\n        uint256[2] memory a,\n        uint256[2][2] memory b,\n        uint256[2] memory c,\n        uint256[2] memory input\n    ) public {\n        bytes32 key = buildKey(to, a, b, c, input);\n\n        require(isUniqueSolution(key), \"Already used solution\");\n\n        Proof memory proof = Proof({\n            a: Pairing.G1Point(a[0], a[1]),\n            b: Pairing.G2Point(b[0], b[1]),\n            c: Pairing.G1Point(c[0], c[1])\n        });\n        require(super.verifyTx(proof, input), \"Invalid Solution params\");\n        _addSolution(key);\n        super.mint(to, tokenId);\n    }\n\n    function mintNFT(\n        address to,\n        uint256 tokenId,\n        Verifier.Proof memory proof,\n        uint256[2] memory input\n    ) public {\n        (\n            uint256[2] memory a,\n            uint256[2][2] memory b,\n            uint256[2] memory c\n        ) = unpackProof(proof);\n        bytes32 key = buildKey(to, a, b, c, input);\n\n        require(isUniqueSolution(key), \"Already used solution\");\n\n        require(super.verifyTx(proof, input), \"Invalid Solution params\");\n        _addSolution(key);\n        super.mint(to, tokenId);\n    }\n}\n",
  "sourcePath": "/workspaces/typescript-node/nd1301/Blockchain-Capstone/eth-contracts/contracts/SolnSquareVerifier.sol",
  "compiler": {
    "name": "solc",
    "version": "0.8.13+commit.abaa5c0e.Emscripten.clang"
  },
  "schemaVersion": "3.4.7",
  "updatedAt": "2022-06-25T13:10:24.974Z",
  "networkType": "ethereum",
  "devdoc": {
    "kind": "dev",
    "methods": {
      "__callback(bytes32,string)": {
        "details": "The following `__callback` functions are just placeholders ideally      meant to be defined in child contract when proofs are used.      The function bodies simply silence compiler warnings."
      },
      "isApprovedForAll(address,address)": {
        "details": "Tells whether an operator is approved by a given owner",
        "params": {
          "operator": "operator address which you want to query the approval of",
          "owner": "owner address which you want to query the approval of"
        },
        "returns": {
          "_0": "bool whether the given operator is approved by the given owner"
        }
      },
      "setApprovalForAll(address,bool)": {
        "details": "Sets or unsets the approval of a given operator An operator is allowed to transfer all tokens of the sender on their behalf",
        "params": {
          "approved": "representing the status of the approval to be set",
          "to": "operator address to set the approval"
        }
      },
      "supportsInterface(bytes4)": {
        "details": "implement supportsInterface(bytes4) using a lookup table"
      },
      "tokenByIndex(uint256)": {
        "details": "Gets the token ID at a given index of all the tokens in this contract Reverts if the index is greater or equal to the total number of tokens",
        "params": {
          "index": "uint256 representing the index to be accessed of the tokens list"
        },
        "returns": {
          "_0": "uint256 token ID at the given index of the tokens list"
        }
      },
      "tokenOfOwnerByIndex(address,uint256)": {
        "details": "Gets the token ID at a given index of the tokens list of the requested owner",
        "params": {
          "index": "uint256 representing the index to be accessed of the requested tokens list",
          "owner": "address owning the tokens list to be accessed"
        },
        "returns": {
          "_0": "uint256 token ID at the given index of the tokens list owned by the requested address"
        }
      },
      "totalSupply()": {
        "details": "Gets the total amount of tokens stored by the contract",
        "returns": {
          "_0": "uint256 representing the total amount of tokens"
        }
      }
    },
    "version": 1
  },
  "userdoc": {
    "kind": "user",
    "methods": {},
    "version": 1
  }
}